:020000040800F2
:100000000000032021060008D1210008D3210008A8
:10001000D5210008D7210008D921000800000000E0
:10002000000000000000000000000000217C00082B
:10003000DB21000800000000B17C00083D750008CD
:1000400071060008710600087106000871060008B4
:1000500071060008710600087106000871060008A4
:100060007106000871060008710600087106000894
:100070007106000871060008710600087106000884
:100080007106000871060008710600087106000874
:100090007106000871060008710600087106000864
:1000A0007106000871060008710600087106000854
:1000B0007106000871060008710600087106000844
:1000C0007106000871060008710600087106000834
:1000D0007106000871060008710600087106000824
:1000E0007106000871060008710600087106000814
:1000F0007106000871060008710600087106000804
:1001000071060008710600087106000871060008F3
:100110007106000871060008DD210008710600085C
:1001200071060008710600087106000871060008D3
:1001300071060008710600087106000871060008C3
:1001400071060008710600087106000871060008B3
:1001500071060008710600087106000871060008A3
:100160007106000871060008710600087106000893
:100170007106000871060008710600080000000002
:100180007106000871060008710600087106000873
:100190007106000871060008710600087106000863
:0C01A000E921000871060008F5210008A4
:1001B00010B5054C237833B9044B13B10448AFF3A1
:1001C00000800123237010BD800300200000000088
:1001D000D843020808B5034B1BB103490348AFF3EA
:1001E000008008BD0000000084030020D8430208FE
:1001F00001F0FF01102A2BDB10F0070F08D010F8D8
:10020000013B013A8B422DD010F0070F42B3F6D1DB
:10021000F0B441EA012141EA014122F007047FF0F4
:1002200000070023F0E80256083C85EA010586EA4B
:10023000010685FA47F5A3FA87F586FA47F6A5FA87
:1002400087F68EB9EED1F0BC01F0FF0102F0070293
:1002500032B110F8013B013A83EA010313B1F8D13E
:100260000020704701387047002D06BF354603381F
:10027000073815F0010F07D1013015F4807F02BF58
:10028000013015F4C03F0130F0BC0138704700BFA9
:100290007BB972B90029BEBF00204FF0004106E0D3
:1002A00008BF00281CBF6FF000414FF0FF3000F086
:1002B000B5B9ADF1080C6DE904CE002909DB002BBE
:1002C0001ADB00F04DF8DDF804E0DDE9022304B0AC
:1002D0007047404261EB4101002B1BDB00F040F80E
:1002E000DDF804E0DDE9022304B0404261EB4101A6
:1002F000524263EB43037047524263EB430300F007
:100300002FF8DDF804E0DDE9022304B0404261EBA0
:1003100041017047524263EB430300F021F8DDF8DE
:1003200004E0DDE9022304B0524263EB430370476B
:1003300053B94AB9002908BF00281CBF4FF0FF314C
:100340004FF0FF3000F06AB9ADF1080C6DE904CE52
:1003500000F006F8DDF804E0DDE9022304B07047A0
:100360002DE9F047089D0C46002B4ED194468C4554
:100370008646B2FA82F262D94AB1C2F120039140B4
:1003800020FA03F30CFA02FC194300FA02FE4FEACA
:100390001C471FFA8CF6B1FBF7F44FEA1E4307FB2C
:1003A000141143EA014304FB06F199420AD91CEBFC
:1003B000030304F1FF3080F01281994240F20F8173
:1003C000023C6344591A1FFA8EF3B1FBF7F007FBA6
:1003D000101143EA014300FB06F69E420AD91CEBCA
:1003E000030300F1FF3180F0FC809E4240F2F9806F
:1003F000634402389B1B40EA044000211DB1D340F6
:100400000022C5E90032BDE8F0878B4205D90DB165
:10041000C5E9000100210846F5E7B3FA83F1002998
:1004200046D1A34202D39042C0F0F080861A64EB1A
:1004300003030120002DE6D0C5E90063E3E7002AAD
:1004400040F09080A1EB0C044FEA1C481FFA8CF797
:100450000121B4FBF8F64FEA1E4308FB164443EAB9
:10046000044307FB06F0984208D91CEB030306F18E
:10047000FF3402D2984200F2CD8026461C1A1FFAA1
:100480008EF3B4FBF8F008FB104443EA044300FB8E
:1004900007F79F4208D91CEB030300F1FF3402D297
:1004A0009F4200F2B0802046DB1B40EA0640A5E7F1
:1004B000C1F120068B4022FA06F71F4320FA06FC02
:1004C00004FA01F343EA0C03F44000FA01F8380C93
:1004D0004FEA1349B4FBF0FE1FFA87FC00FB1E44F1
:1004E00049EA04440EFB0CF9A14502FA01F20AD9CB
:1004F0003C190EF1FF3A80F08480A14540F28180E2
:10050000AEF1020E3C44A4EB09041FFA83F9B4FBDC
:10051000F0F300FB134449EA044403FB0CFCA4453C
:1005200007D93C1903F1FF3067D2A44565D9023BD6
:100530003C4443EA0E40A0FB0293A4EB0C049C4213
:10054000CE469C4651D34ED055B1B8EB0E0364EB6A
:100550000C0404FA06F6CB401E43CC40C5E9006407
:10056000002150E7C2F1200320FA03F10CFA02FC4B
:1005700024FA03F394400C434FEA1C4800FA02FEAD
:100580001FFA8CF7B3FBF8F008FB1031230C43EA99
:10059000014300FB07F1994208D91CEB030300F16A
:1005A000FF362CD299422AD9023863445B1AA4B28E
:1005B000B3FBF8F108FB113344EA034401FB07F3F2
:1005C000A34208D91CEB040401F1FF3613D2A34265
:1005D00011D902396444E41A41EA004139E704467A
:1005E000F0E6084606E7C845AED2B9EB020E63EB6B
:1005F000070C0138A8E73146EDE7034699E7304696
:10060000D4E7D6467FE7634402384DE706462346E3
:1006100008460FE7023E634430E700BF704700BF63
:10062000DFF834D0002103E00C4B5B584350043119
:100630000B480C4B42189A42F6D30B4A02E00023B7
:1006400042F8043B094B9A42F9D304F0A9FB23F08A
:1006500053F901F05FF8704700000320A4C10F08B0
:10066000000000206401002080030020483B01209E
:10067000FEE7704708B500F0B7FDBDE8084000F0A0
:100680003BBD00F0B3BD704710B50421044621F016
:100690003DFF204610BD000038B50C4B0C4C1880B7
:1006A0000C4B822019806368984740F611039842EA
:1006B0000AD1094D23682C60822098472B6882203C
:1006C000DB689847002038BD0120FCE7A603002026
:1006D0004C000020A4030020A80300204FF4A071C8
:1006E000F020FFF7D9BF0000F7B5374D2B6804465F
:1006F0001B6982209847208000284ED02B680DF17E
:1007000006025B6901A982209847304B1B78002BB9
:100710004BD0BDF8063040F6746293423FD9ADF835
:100720000620BDF80630D21A92B20A2A42D90B230B
:10073000B2FBF3F2264B1B889A4201D9013B9AB2D5
:10074000BDF8043040F6B8318B4235D8C3F571633B
:100750000E339BB20F21B3FBF1F31E4909888B4284
:1007600001D901398BB21C4E1C4D30682F68834271
:1007700081B28CBF591AC91AB8B2BA428CBF101ACA
:10078000801A89B280B201440529C8BF336033683A
:10079000C8BF2A6063802B68A38003B0F0BDB32B71
:1007A0009CBFB423ADF80630BBE7BDF80620A2F528
:1007B000B472B9E70022C3E7C3F56D6308339BB297
:1007C0000E2BC7D80023CEE7A8030020E41C00208E
:1007D000A4030020A6030020A00300209C03002007
:1007E00037B568460D461446FFF77EFFBDF800009A
:1007F00030B1BDF802302B60BDF804302360012019
:1008000003B030BD032821D8DFE800F0020B121935
:100810000F4B1A68B2FA82F2520904210D4804F013
:1008200081BE0B4B5A68B2FA82F252090821F5E7F1
:10083000074B9A68B2FA82F252091021EEE7044B94
:10084000DA68B2FA82F252092021E7E7704700BF66
:10085000AC03002000100240032821D8DFE800F09C
:10086000020B12190F4B1A68003A18BF012204211B
:100870000D4804F057BE0B4B5A68003A18BF0122CE
:100880000821F5E7074B9A68003A18BF01221021AA
:10089000EEE7044BDA68003A18BF01222021E7E7AF
:1008A000704700BFAC0300200010024003280DD8A1
:1008B000DFE800F00206080A0421054804F037BE0C
:1008C0000821FAE71021F8E72021F6E7704700BF7A
:1008D0000010024008B5032811D8DFE800F0020A32
:1008E0000C0E0421074804F017FE431E58425841DD
:1008F00008BD0821F6E71021F4E72021F2E70020E7
:10090000F3E700BF0010024070B5084D0024012637
:10091000E0B2FFF7DFFF18B12B68012B18BF2E6084
:100920000134052C05F10405F2D170BDAC030020A3
:10093000012380F8781080F87930704770470020E4
:1009400070470000034B4164003918BF0121197042
:10095000704700BF072E0120704700207047836B4F
:100960000BB10846184770474FF6FF707047406854
:1009700003689B6918477047704770477047704716
:1009800010B5044600F048FD23680349D3F89030C1
:100990002046BDE810401847000000D008B50368A5
:1009A0000446D3F88430984723682046DB6F984785
:1009B00000F0ECF8236820465B6F9847292001F08F
:1009C00027F900F0E3F8236820465B6F9847F8E7C3
:1009D00010B5044609F070FF23682046D3F8BC30F8
:1009E000BDE81040184700F0F9BC00F0FDBC00F075
:1009F00031BD00F0CFBC00F041BD00F049BD00F0BA
:100A0000D3BC09F087B910B58421044621F07EFDDE
:100A1000204610BD10B590F8341090F878400C4B7B
:100A20008C421A7809D03AB90A4A0B4914880888C6
:100A300010800C8001221A7010BD002AFCD0054ADB
:100A400005491488088810800C800022F3E700BF55
:100A5000002E0120FC2D0120FE2D012070B50D4639
:100A6000194635B9094B0A4A0A4840F2FF2122F0DB
:100A700093FCC0E90F52084B003A18BF01221A70CC
:100A80000368BDE87040D3F8903018474844020826
:100A900080440208CE440208062E012008B5094B06
:100AA0001B888B4203D8084B1B88934205D9074B00
:100AB000074A0848A32122F06FFC074B1980074B17
:100AC0001A8008BDFC2D0120FE2D012013450208CF
:100AD00076450208CE440208022E0120042E012091
:100AE000034690F87A0018B1586803681B681847E5
:100AF00070470000012108B50022084606F0ABFD52
:100B00000A4B186028B90A4B0A4A28210A4822F0E1
:100B100043FC00220421012006F03CFE074B186034
:100B200018B9074B034A2C21F0E708BDC003002089
:100B3000A8460208F146020820470208BC0300202C
:100B400066470208024B4FF0FF31186806F0CDBD32
:100B5000C0030020014B186806F0F3BDC00300205D
:100B6000024B0021186806F0C0BD00BFC003002082
:100B7000FFF7F0BF03480449006800231A4606F057
:100B800044BE00BFBC0300200400002013B5084C85
:100B900000231A4601A9206806F068FE20684FF07D
:100BA000FF33002201A906F061FE02B010BD00BFB4
:100BB000BC03002003685B6C184701207047036882
:100BC0009B6A1847FEE740F2EF307047054B036021
:100BD000054B4FF08062C3F88820BFF34F8FBFF3FF
:100BE0006F8F7047FC48020800E100E010B5044632
:100BF0004FF45A61FFF7EAFF204621F087FC2046B8
:100C000010BD000082B0002301930E4B1A6B42F41A
:100C100000021A631A6B02F400020192019A1A6927
:100C200042F400021A611A6922F400021A61064BAA
:100C3000064A1A61064A5A61064B4FF080629A6072
:100C400002B0704700380240781E0020A50E000850
:100C5000C50B000800E100E008B50A2809D8DFE864
:100C600000F006100E0808080810101010000220EE
:100C700008BD054B054A0648902122F08DFB002057
:100C8000F6E70120F4E700BFA8470208C3470208BF
:100C90000E48020838B50C46887FFFF7DDFFA58AAD
:100CA000E28A164B2169586342EA05425A64628B14
:100CB000D963521B1A642568082D0ED19A611A61F6
:100CC0005862207F0E4A42EA0062DA61E2681A62E4
:100CD0000C4A5961D9601A6038BD0022D8611A6186
:100CE000E1680A0A480902F4784200F4FC60024311
:100CF000C1F3C4010A439A63034AECE700B002401F
:100D000009000100012302000123030008B50B289C
:100D10000BD8DFE800F00612100A0A0A0A080808D1
:100D20000808022008BD0520FCE7054B054A0648D7
:100D30006F2122F031FB0020F4E70120F2E700BF31
:100D4000A8470208524802080E4802082DE9F0415F
:100D500091F81D800C464046FFF7D8FFA77F054657
:100D60003846FFF7D3FF06463846FFF775FFA18ADE
:100D7000628B444B521A1A649A61228B521A1A617E
:100D8000E28A586342EA01425A6421696268D9637F
:100D9000DA602068802828D0227F0FD8202867D0EA
:100DA000402865D004281AD0364B45EA026545F440
:100DB0000035B845DD6161D0334A44E0B0F5807F4D
:100DC00004D0B0F5007FEFD1304800E0304840EA71
:100DD0000262DA61E2681A625E62596132E045EAF3
:100DE000026242F40032DA61F6E7A068021DDA62BC
:100DF000227F45EA026545F40035DD615E62596196
:100E0000017841B1012921D0224B234A23484FF4D4
:100E10008D7122F0C1FADA69418822F47F420139EA
:100E200022F0100242EA0122DA610121154BDA694F
:100E300042F02002DA61DA699206FCD410229A604C
:100E40000029B9D0164A1A60BDE8F081B2F1FF015D
:100E5000DA69408822F47F4200F1FF3022F010026C
:100E600042EA002242F0100218BF0121DA61DDE7F8
:100E700045EA0262034B42F40032B4E742F2013227
:100E8000E1E700BF00B002400123010009000200B9
:100E90000A0002009C480208B64802080E480208F0
:100EA00001230200024B1B68586803685B691847FE
:100EB000082E012070B5044625460A4B0C3000264A
:100EC00060602672667245F8203B6022294609F070
:100ED00049FE04F55A63EE6024359D42FBD120465D
:100EE00070BD00BFFC480208034B1A68D207FCD44F
:100EF00023229A60704700BF00B002407047000094
:100F000030B50F4C2568ED07FCD423250904A560F6
:100F100041F001010225FF2B65636164E0630AD0A3
:100F20000849656241EA0363E361074B226260613D
:100F3000E060236030BDE561039BA363034BF8E7EA
:100F400000B002400900010001000200010003009E
:100F500030B50E4C2568ED07FCD423251204A5609E
:100F600042F001020225FF2B65636264E063E160E9
:100F700008D01B0643F00213E361054B6562606114
:100F8000236030BD034BE3610123F9E700B0024069
:100F900001000200020002FF30B50B4C2568ED078E
:100FA000FCD4232512041B06A56043F4003302255C
:100FB00042F0010265636264E063E160E361034B58
:100FC00065626061236030BD00B002400100020034
:100FD000012070470C2070470C2303FB01000830F0
:100FE00070470C2303FB0100083070470120704755
:100FF0004FF4FB6070474FF4FB6303FB01000830C4
:1010000070474FF4FB6303FB010008307047012079
:1010100070471020704700EB01100830704700EB5C
:10102000011008307047084601F0C6BF10B5034BE9
:101030000360044608F0C4FB204610BDB449020812
:1010400010B50446FFF7F2FF2046142121F05EFAA6
:10105000204610BD10B5034B0360044608F0B0FBFA
:10106000204610BD8049020810B50446FFF7F2FF84
:1010700020464FF4FC6121F049FA204610BD0000E3
:1010800010B5034B0360044608F09AFB204610BDE0
:101090004C49020810B50446FFF7F2FF204618211C
:1010A00021F034FA204610BD10B5084B0360044609
:1010B00000F60C00FFF7BAFF04F12C00FFF7CAFF9F
:1010C00004F11400FFF7DCFF204610BDE8490208D8
:1010D00008B50248FFF7E8FF08BD00BF9C120020DA
:1010E00010B50446FFF7E0FF20464FF4186121F0E9
:1010F0000DFA204610BD00002DE9F34101F0EEF895
:10110000054601F0EFF80024014623462846224612
:10111000009412F049F9274B274A1A60204603F041
:10112000BDF8264D264B274A27489A6012F0A4F8AE
:101130002B68BFF35B8FDB0735D4284621F0E8F935
:1011400088B3224C224B236004F6240604F11400D9
:1011500004F12C0804F60C076060C4F80880E7600E
:10116000266108F02FFB1B4B6361404608F02AFB09
:10117000194BE362384608F025FB184BC4F80C38CD
:1011800004F5026003F068FB224604F50261304674
:1011900003F0A8F9304601F00FFF114822F01AF9C8
:1011A000284621F0C1F90F4802B0BDE8F041FFF731
:1011B000E7BB00BF6C2E01204804002098120020DD
:1011C000680400204C040020080000209C1200202D
:1011D000E84902084C49020880490208B44902085B
:1011E000D1100008C4030020704700000148FFF739
:1011F000D5BB00BFC403002070B5264E264C274D3A
:10120000274B23603046FFF755FE284617F0D2F9EA
:1012100024480FF0D9FD244B2448DC6000224FF411
:101220008071C3E9121222491A86C3E91A122149B0
:1012300083F85820C3E91E011F49C3F880101F49D5
:101240001F480B60F021C3E90422C3E90622C3E969
:101250000822C3E90A22C3E90E22C3E91022C3E926
:101260001422C3E917225A6683F870205A67C3E92B
:10127000016501801348018013484FF4A07101807B
:101280001248018012490A70012283F83420114A61
:101290001A6070BDF404002094120020680400203D
:1012A000384402084C040020C4030020000001015F
:1012B00001000001000450001A001400082E012053
:1012C000FC2D0120022E0120FE2D0120042E0120E4
:1012D000002E0120C44502080148FFF777BC00BF7B
:1012E000F40400200020704781807047C18070475F
:1012F0000181704741817047704770477047704760
:10130000704710B4C4880368121B84885B6D091B86
:1013100012B25DF8044B09B218474FF6FF73838190
:101320004FF0FF3303621368C36110607047002001
:1013300070478B88838001207047704780F82610A3
:10134000704790F82600704710B50022B1F90840A8
:10135000B1F90A10028042808480C18010BD002251
:10136000028042808280C28070470177704780EDA2
:10137000080A704780F82410704780F825107047DD
:1013800001207047983070478C3070478430704728
:1013900070470000034B902283F85A2383F85823A8
:1013A000704700BF00E100E0094A0A49D3680A48D3
:1013B000C3F30A03013B9BB20B801169C1F30A011D
:1013C000013901801364536B43F001035363704789
:1013D000006801401E1C00201C1C0020014BD3F89B
:1013E000AC00704700680140024B0122C3F8AC100A
:1013F0005A627047006801407047704710B52C2151
:10140000044621F083F8204610BD10B5BC210446E7
:1014100021F07CF8204610BD70B5044608F0CFFCE2
:1014200023689D6E0EF068FA01462046A84723689F
:10143000054AD3F88C502046AC460023BDE87040E6
:10144000A2F51631604700BF00B004D008F09EBC82
:1014500008F0A8BC08F064BC08F0D3BD90F82520C3
:1014600012B103685B691847704790F825201AB1DC
:1014700090F8242002B1186070470000034B4FF031
:1014800080629A604FF080729A60704700E100E0DD
:10149000084B4FF08062C3F88820BFF34F8FBFF333
:1014A0006F8F4FF08072C3F88820BFF34F8FBFF368
:1014B0006F8F704700E100E070B50023124E83800B
:1014C000124B0360336893F8582005460AB1D86C74
:1014D00000B998680368DB6A98473368B0FA80F40B
:1014E000D86C640930B10368DB6A9847002808BFEC
:1014F00044F001042CB9064B064A07482C2121F080
:101500004BFF284670BD00BF082E0120F84A020894
:10151000F4490208524A02088B4A020870B5254E67
:101520003568BFF35B8F15F0010540D1304620F0E0
:10153000EFFF00283BD0204C204B256104F1340004
:10154000C4E90035C4E90255E584A562A5850FF01C
:1015500020FF04F158000AF0BBFF194BA365204699
:10156000184B40F8843BFFF7A7FF174BC4F88430B3
:101570002433C4F88C304FF4C803C4E92835002361
:10158000C4F8AC30C4F8B030C4F8B430C4F8B830E3
:101590000E480F4BC4F89050C4F89C50C4F8A850A3
:1015A000C4F8983021F016FF304620F0BDFF024805
:1015B00070BD00BF201C0020241C0020105E02080B
:1015C000184B0208904B0208C45D020891130008F2
:1015D000A45D020838B5184C23685BB3174B184A52
:1015E0001B6C11888B4216D1164B198804F0ACFD88
:1015F000236893F86A200025013283F86A2083F873
:101600007C50FFF7B7FA206809F056F92846BDE884
:101610003840FFF7F7B804F097FD246823682046A8
:101620001B6A9847012384F87C300020BDE83840CD
:10163000FFF712B938BD00BF082E01200068014035
:101640001E1C00201C1C002007B5064BADF8060030
:101650001B68054801220DF1060105F015FB03B0DA
:101660005DF804FB0C000020241D002008B5642058
:1016700005F0E5FFFBE7000030B595B01022002132
:101680000AA822F090F81422002103A822F08BF877
:1016900000241E4B01941A6C42F080521A641B6C99
:1016A00003F080530193019B194B02941A6842F492
:1016B00040421A601B6803F4404302930122029BDC
:1016C0004FF48033CDE9082302254FF4800308212D
:1016D000CDE90E534FF4B473CDE9101308A80423D9
:1016E0001393129504F088FD04F04CFD0F23CDE90F
:1016F00003354FF4A0504FF48053CDE90603052184
:1017000003A8059404F054FF15B030BD0038024022
:101710000070004080B59AB003F050FBFFF7ACFFBB
:10172000142200210DA822F03EF80024C94B009499
:101730001A6BC948C94DDFF85C8342F010021A6386
:101740001A6B02F010020092009A01941A6B42F098
:1017500020021A631A6B02F020020192019A02948D
:101760001A6B42F080021A631A6B02F08002029236
:10177000029A03941A6B42F004021A631A6B02F085
:1017800004020392039A04941A6B42F001021A6352
:101790001A6B02F001020492049A05941A6B42F04B
:1017A00002021A631A6B02F002020592059A06946D
:1017B0001A6B42F040021A631A6B02F04002069262
:1017C000069A07941A6B42F008021A631B6B03F027
:1017D0000803224607933C21079B03F0A3FEA04881
:1017E0000122022103F09EFE22469D48042103F0BF
:1017F00099FE22469B484FF4405103F093FE012688
:101800003C23CDE90D3694480F9403230DA90227FC
:10181000109303F09DFD92480DA9CDE90D76CDE919
:101820000F4403F095FD04238D480DA9CDE90D3635
:10183000CDE90F4703F08CFD4FF4405389480DA9C3
:10184000CDE90D36CDE90F4703F082FD0DA94FF428
:10185000C0438548CDE90D36CDE90F4703F078FD4B
:101860008248834B036003F03BFBDFF82CE2814BA3
:101870002C62C5E900E328464FF48043C5E90434EF
:10188000C5E90244C5E9064404F05AF81021284687
:1018900004F09EFA21462846774D04F0B8FA4FF43A
:1018A0008273C5E900834FF400791823C5E90693D4
:1018B00028460A23C5E90244C5E90444C5E90844A9
:1018C000AC62EB6205F084F98F2322463946644806
:1018D0008DF824308DF8344003F024FE32464FF466
:1018E0007A7309A9284605F0CFF94FF47A73324686
:1018F0000DA9284605F074FB3246394658485F4D1D
:1019000003F010FE9DF83430D32B04BF5C4B1E70E7
:101910005C4B0126C5E90036102240230024C5E9AE
:1019200004234FF4C073C5E906344FF40063C5E9DE
:1019300008344FF4005302274FF00409AB624FF014
:10194000030A07230DA92846CDE90D73CDE90F93AE
:101950004FF00808C5E90249CDE911A7139705F032
:101960001BF84FF6FF7209A92846CDE90A860894AC
:1019700009960C9405F030F8304603F04BFA4FF618
:10198000FF7209A92846CDE90978CDE90B6405F075
:1019900023F84FF6FF7209A92846CDE909A8CDE939
:1019A0000B9405F019F84FF40C730893089B0C93F3
:1019B0004FF6FF7209A92846CDE909980B9605F064
:1019C0000BF840F26A51284605F024F834220DEB5A
:1019D0000200214621F0E7FE2B4D2C4B2C61C5E97E
:1019E00000340923C5E905361D23C5E9073A40F24D
:1019F0000D1140F24313C5E9091340F2171040F2EC
:101A00004713C5E90B032846C5E90244AC8685F8AF
:101A1000364004F0A1FAFF214FF4806CF022CDE9AA
:101A200012140521CDE914C14FF4A0730DA9CDE91D
:101A30000E24CDE9164228462246154D1893CDE9CD
:101A400010370D94ADF864408DF8664004F04FFBFC
:101A500024E000BF0038024000100240241E002095
:101A600000080240000C024000180240B81E00208E
:101A700000300240A0860100241D0020F01C002040
:101A8000E41C0020400100A07C1D002000680140F3
:101A9000E01C002000500140005C0040174B2B6010
:101AA0001B6898472B68164DDB689847154B2846EE
:101AB000C5E90034C5E90274C5E90A47C5E90C4423
:101AC00003F01EFA3146284603F0D2FAFEF7D2FDA3
:101AD000FEF7CFFD05F040FD0B4A0C48214605F00E
:101AE00067FD0B4B0B4A186021460B4805F060FD63
:101AF0000A4B186005F042FDFEE700BF140000200D
:101B0000781E002000B00240104C02086D1600083C
:101B1000EC1C0020EC4B020883060008E81C0020A7
:101B2000704770477FB5094B8DF817201B680293EB
:101B30000DF117020123009201930A460146044861
:101B400003F0A6FF07B05DF804FB00BF1000002003
:101B5000241E00207FB500238DF81730084B1B682A
:101B600002930A4601230DF11701009101930146EA
:101B7000044804F01DF89DF8170007B05DF804FB59
:101B800010000020241E00201FB5084C246800927D
:101B9000CDE901340A4601230146054804F008F85E
:101BA000003818BF012004B010BD00BF1000002095
:101BB000241E002003F02EB910B5064C002220464A
:101BC000042103F0AFFC20460122BDE810400421AF
:101BD00003F0A8BC0008024038B50B4D04460122B2
:101BE0000A484FF4005103F09DFC002204212846CE
:101BF00003F098FC2046FFF727FD28460122BDE8A8
:101C00003840042103F08EBC00080240000C024062
:101C100038B50B4D044600220A484FF4005103F03A
:101C200081FC00220421284603F07CFC2046FFF7BB
:101C30000BFD28460122BDE83840042103F072BCA8
:101C400000080240000C0240F7B5144E144F054640
:101C50000C4630460022042103F064FC00224FF4BD
:101C60000051384603F05EFC2846FFF7EDFC0D4BB3
:101C70000D481B68224601A905F0B2F93846012239
:101C80004FF40051019C03F04DFC30460122042129
:101C900003F048FC204603B0F0BD00BF000802403E
:101CA000000C02400C000020241D002003F0B2B8FC
:101CB0000268034B9A4201D103F09AB8704700BF03
:101CC000001000407047000082B00E4B00220092CE
:101CD000596C41F480415964596C01F48041009180
:101CE00000990192196C41F0805119641B6C03F04A
:101CF00080530193019B0F216FF0010002B003F0AC
:101D0000AFB800BF003802400268094B9A4282B067
:101D10000BD100230193074B1A6B42F480521A63D4
:101D20001B6B03F480530193019B02B0704700BF0B
:101D3000003002400038024007B50F4B02689A425B
:101D400016D10022A3F5F0430192196B41F4000172
:101D500019631B6B03F40003019305215A20019BB7
:101D600003F07EF85A2003B05DF804EB03F0AAB844
:101D700003B05DF804FB00BF00B002402DE9F04362
:101D8000044689B01422002103A821F00CFD22682A
:101D9000244B9A4243D1244C244800250095236BC0
:101DA00043F004032363236B03F004030093009BBD
:101DB0000195236B43F001032363236B03F00103BD
:101DC0000193019B4FF012094FF400734FF001088B
:101DD0000327042603A9CDE90339CDE90587079632
:101DE00003F0B6FA4FF480731148079603A9CDE9C2
:101DF0000339CDE9058703F0ABFA0295236C43F470
:101E000000032364236C03F400030293029B236A00
:101E100043F400032362236A23F40003236209B01E
:101E2000BDE8F083005C004000380240000802403A
:101E300000000240F0B599B004461422002107A822
:101E400021F0B1FC30220DEB0200002121F0ABFCAF
:101E500022685E4B9A4240F0B78008230C93C0235F
:101E60001093042312930CA84FF40033159304F03D
:101E700067FC08B1FFF726FF554B56480024009435
:101E80005A6C42F080625A645A6C02F0806200928E
:101E9000009A01941A6B42F020021A631A6B02F046
:101EA00020020192019A02941A6B42F001021A6315
:101EB0001A6B02F001020292029A03941A6B42F02A
:101EC00002021A631A6B02F002020392039A04944C
:101ED0001A6B42F040021A631A6B02F0400204923D
:101EE000049A05941A6B42F004021A631A6B02F00A
:101EF00004020592059A06941A6B42F008021A63CE
:101F00001B6B03F00803069302250E26069B0B9617
:101F10004FF4806307A9CDE90735CDE9094503F002
:101F200017FA41F658032C480B9607A9CDE9073557
:101F30000927CDE9094503F00BFA032327480B973E
:101F400007A9CDE90735CDE9094503F001FA4FF4BA
:101F5000706322480B9607A9CDE90735CDE90945FD
:101F600003F0F6F94FF40C631D480B9607A9CDE971
:101F70000735CDE9094503F0EBF9C02319480B9665
:101F800007A9CDE90735CDE9094503F0E1F90823B3
:101F900015480B9607A9CDE90735CDE9094503F0AA
:101FA000D7F94FF4A0530E480B9707A9CDE9073591
:101FB000CDE9094503F0CCF958202246052102F06D
:101FC0004FFF582002F07EFF19B0F0BD00680140BD
:101FD00000380240001402400000024000040240A9
:101FE0000018024000080240000C024010B50446F0
:101FF00088B01422002103A821F0D5FB2268144BDD
:102000009A4223D103F56843002101915A6C11488B
:1020100042F480125A645A6C02F480120192019ABE
:1020200002911A6B42F020021A631B6B03F020032B
:102030000293029B4FF4607202230321CDE9032334
:102040000523CDE9061303A903F082F908B010BDFA
:1020500000500140001402402DE9F04186B00023F9
:1020600003932B4B1C68002C4FD14FF00108C3F891
:102070000080284B00949A6B274842EA08029A6332
:102080009B6B03EA08030093022703260C25009BA1
:1020900001A94FF63F03CDE90137CDE9046503F00F
:1020A00057F91E48059501A9CDE90187CDE90346F9
:1020B00003F04EF948F233131948059501A9CDE90B
:1020C0000137CDE9034603F043F94FF68373154812
:1020D000059501A9CDE90137CDE9034603F038F9AB
:1020E0004CF203731048059501A9CDE90137CDE9FC
:1020F000034603F02DF960230C48059501A9CDE9AD
:102100000137CDE9034603F023F906B0BDE8F081BD
:10211000C01E0020003802400014024000080240A7
:102120000018024000100240000C0240000402406F
:1021300070B588B000230293204B1A6C42F0100255
:102140001A641B6C03F010030293054601A903A84F
:10215000029B04F0D7FA069B4BBB04F0C3FA184E5F
:10216000184B336040F2E733F360174BB0FBF3F3E7
:10217000013B7360304600233361B360B36105F007
:1021800013F9044680B9304604F0D0FF044658B92C
:10219000362002F097FE0F2D0DD822462946362014
:1021A00002F05EFE094B1D60204608B070BD04F0D1
:1021B00099FA4000D3E70124F6E700BF0038024057
:1021C000C41E00200010004040420F007C00002090
:1021D0007047FEE7FEE7FEE7FEE77047014804F0C0
:1021E000E3BF00BFC41E0020014803F023BF00BFAF
:1021F0007C1D0020014802F0B1BE00BF781E002007
:102200000120704708B521F071FB162303604FF0E1
:10221000FF3008BD08B521F069FB16230360FEE717
:1022200070B50D4614460E46731B9C4201DC2046D9
:1022300070BDAFF3008006F8010BF5E770B50D46F1
:1022400014460E46731B9C4201DC204670BD16F8F6
:10225000010BAFF30080F5E74FF0FF3070474FF40C
:1022600000534B60002070470120704700207047EA
:102270000A4A116808B5034609B90949116010688E
:10228000694603448B4206D921F030FB0C230360DE
:102290004FF0FF3008BD1360FCE700BF0C1F0020AB
:1022A000483B0120704710B50421044620F02EF968
:1022B000204610BD012908B506D0022908D059B919
:1022C00002F038F8006808BD02F034F84068FAE718
:1022D00002F030F88068F6E70020F4E70048704725
:1022E000484C02081120704713B5002451B103680F
:1022F00001948DF8034001AA9C680DF10303A047E7
:1023000002B010BD0846FBE7C0897047008A7047DD
:10231000C088704780887047807A00F07F007047DF
:10232000807AC00970470020704700009FED010AC5
:10233000704700BF00000000806A70477047704718
:1023400070477047704770477047704770477047D5
:1023500070477047704770477047704770477047C5
:102360007047704770477047704730B4C268446820
:102370005510034604EB6200D20748BF62599B68C0
:1023800030BC48BFD35818470346406830B19A68FC
:102390001AB9D86800F0010070470120704730B4C6
:1023A000C26844685510034604EB6200D20748BF78
:1023B00062599B6830BC48BFD358184703464068F1
:1023C00030B19A681AB9D86800F00100704701204E
:1023D000704790F82D3080F86030704790F82D30BD
:1023E00080F8903080F85C30704790F82D3080F89D
:1023F0005C3070470146343091F82C3013B16231B3
:102400000AF08DBD6031FBE710B50446683094F8E2
:102410002C303BB104F166010AF081FD2046FFF744
:10242000E9FF10BD04F16401F6E70146383091F888
:102430002C3013B136310AF072BD3431FBE710B5E0
:102440006421044620F062F8204610BD10B59421A6
:10245000044620F05BF8204610BD10B56421044608
:1024600020F054F8204610BD10B51021044620F08D
:102470004DF8204610BD10B51021044620F046F856
:10248000204610BD10B540F2FC61044620F03EF835
:10249000204610BD00F2CC53994270B504460D465B
:1024A00003D10DF029FA00F097FD04F5C6639D42B3
:1024B00003D123682046DB6A984704F5A7639D4251
:1024C00003D1236820465B6B984704F2A4439D42E6
:1024D00003D1236820469B6B984704F582639D4295
:1024E00003D123682046DB6B984704F55F739D4258
:1024F00003D1236820461B6C984704F53A739D422C
:1025000003D1236820465B6C984704F515739D4200
:1025100003D1236820469B6C984704F5E0739D42E5
:1025200003D123682046DB6C984704F596739D42DF
:1025300003D1236820461B6D984704F198039D4200
:1025400005D1236820465B6DBDE87040184770BD1B
:1025500010B50446006B50B10368DB68984730B192
:10256000206B036821469B68BDE81040184710BDEA
:1025700000F294628A4202D103681B6B18477047CD
:1025800070B50D7990F82C3004463DB93BB1236805
:102590002046D3F88830BDE8704018477BB1B5FAC3
:1025A00085F35B0984F82C3023682046D3F88C30FF
:1025B0009847236820465B699847002DE7D070BD97
:1025C0000B7970B590F82C6004460D460BB916B126
:1025D00070BD002EFCD0B3FA83F35B0984F82C3075
:1025E00023682046D3F88C309847236820465B69DF
:1025F0009847002EECD02B79012BE9D12368204697
:10260000D3F88830BDE8704018470000074A0260E0
:102610000022C0E90122C0E90322C0E90522C0E985
:1026200007224FF480728284704700BF1061020855
:1026300070B5036804461B6B154698472368294606
:1026400020465B6BBDE8704018470B882DE9F041D0
:10265000A0F864301388B0F90850A0F8663004463A
:102660001046904610F0B4FEB4F90A30074603EB6A
:10267000D3734046C3F34F0610F0DEFE05EBD5756D
:10268000C5F34F0500EBD07007EBD777A6EB6002E0
:10269000A5EB670104F1680012B209B2FFF7C8FFA9
:1026A00023682046D3F88C30BDE8F04118470B88EA
:1026B0002DE9F04183861388B0F90850C38604469B
:1026C0001046904610F084FEB4F90A30074603EB3A
:1026D000D3734046C3F34F0610F0AEFE05EBD5753D
:1026E000C5F34F0500EBD07007EBD777A6EB600280
:1026F000A5EB670104F1380012B209B2FFF798FFA9
:1027000023682046D3F88C30BDE8F041184770B5F7
:10271000036804469B6B1546984723682946204664
:10272000DB6BBDE87040184738B504461D46FFF71F
:102730007FFFBDF9102029462046FFF7E8FF38BD8E
:102740000B8870B5A0F860300546138825F8623F05
:102750000446284610F03CFE0646284610F06CFE63
:10276000314602462046FFF7D2FF23682046D3F8C1
:102770008C30BDE87040184738B5262204460D4617
:10278000002121F010F82046FFF740FF064B2360A0
:102790002B88E384FF23204684F8283029460AF05A
:1027A000BEFB204638BD00BFCC5F0208F8B5194B10
:1027B000018F1B888B4206462AD9174B1B682BB901
:1027C000164B174A17486C2120F0E6FD13F811202C
:1027D000154B1B6853F82250144B186801F09AFDF2
:1027E0002B6807469B6B284698472B6804469B6CD2
:1027F0003946284698472B6814FB00F45B6A394633
:1028000028469847A4B223181BB2A6F84630F8BD54
:102810000023FAE7642E0120602E01209C4D02085F
:10282000DE4D0208194E0208682E01206C2E012090
:10283000F7B50446FFF7EAFE4FF47F432646A3852B
:102840000123002784F82430174BA762276346F83A
:10285000343B4FF6FF7501A93046ADF80450FFF741
:102860008BFF3A4639463046A4F86050A4F86250CF
:10287000FFF7DEFE3146204606F0B6FF04F168069B
:102880000A4B236001A9A4F86450A4F866503046AE
:10289000ADF80450FFF770FF2046314606F0A4FF64
:1028A000204603B0F0BD00BF684E0208084F020882
:1028B00037B50446FFF7AAFE4FF47F420023A285F6
:1028C0000122A36284F8242023630A4A22604FF085
:1028D000FF3304F13805636301A92846ADF80430DD
:1028E000FFF74AFF2046294606F07EFF204603B048
:1028F00030BD00BFAC4F02082DE9F04F044691B047
:10290000274600250EF0FCFFDD4BE56347F8403B12
:1029100026222946384620F046FF3846FFF776FE45
:10292000D84B236404F16C08FF230FA984F86630A8
:10293000A5664FF6FF734046ADF83C30FFF71CFF2D
:1029400004F1980318460293FFF772FF04F596739B
:1029500018460393FFF76CFF04F5E07318460493E1
:10296000FFF766FF04F5157318460593FFF760FF40
:1029700004F53A7318460693FFF75AFF04F55F73A0
:1029800018460793FFF754FF04F58263184608932F
:10299000FFF74EFF04F2A44318460993FFF748FFE0
:1029A00004F5A76318460A93FFF742FF04F2CC53DD
:1029B00018460C93FFF77CFF04F5C66318460D9389
:1029C000FFF776FF04F2946318460B930AF0E8FBD6
:1029D000AD4BC4F8DC36AD4BC4F8E436AC4BC4F8B0
:1029E000EC36AC4BC4F8F4364FF4A0732A46C4F866
:1029F000E046C4F8E856C4F8F046C4F8F85629464C
:102A000000933846F023261DFFF78EFE4FF07F43DC
:102A1000A3663946304606F0E7FE6FF046024046B0
:102A20006FF01901FFF704FE04230FA94046ADF82B
:102A30003C300AF074FA414630464FF0010906F086
:102A4000D3FE0298ADF838500FAA0EA9ADF83C900D
:102A5000FFF776FE2A46294604F1CC000B274FF0FB
:102A60000E0BFFF7E5FD0298ADF83C700FAA0EA91A
:102A70004FF03C0A04F2DC68ADF838B0FFF7E5FD32
:102A80004FF00613C4F804310298C4F8C8805346C6
:102A9000D222CDF800A0A921FFF746FE02993046C8
:102AA00006F0A2FE0398ADF838500DEB0A020EA90D
:102AB000ADF83C90FFF744FE2A46294604F5B07075
:102AC000FFF7B6FD0398ADF83C700DEB0A020EA9B6
:102AD000ADF838B0FFF7B9FD4FF00613C4F89831E0
:102AE0000398C4F85C815346D222CDF800A05C2143
:102AF000FFF71AFE0399304606F076FE0498ADF80B
:102B000038500DEB0A020EA9ADF83C90FFF718FE05
:102B10002A46294604F5FA70FFF78AFD0498ADF8B5
:102B20003C700DEB0A020EA9ADF838B0FFF78DFD31
:102B30004FF00613C4F82C320498C4F8F0815346C1
:102B4000D2223946CDF800A0FFF7EEFD04993046B9
:102B500006F04AFE0598ADF838500DEB0A020EA9B2
:102B6000ADF83C90FFF7ECFD2A46294604F52270AB
:102B7000FFF75EFD0598ADF83C700DEB0A020EA95B
:102B8000ADF838B0FFF761FD4FF00613C4F8C0325E
:102B90000598C4F8848253468D22CDF800A0A9215F
:102BA000FFF7C2FD0599304606F01EFE0698ADF807
:102BB00038500DEB0A020EA9ADF83C90FFF7C0FDAE
:102BC0002A46294604F54770FFF732FD0698ADF80E
:102BD0003C700DEB0A020EA9ADF838B0FFF735FDD9
:102BE0004FF00613C4F854330698C4F818835346BC
:102BF0008D22CDF800A05C21FFF796FD06993046A6
:102C000006F0F2FD0798ADF838500DEB0A020EA958
:102C1000ADF83C90FFF794FD2A46294604F56C7008
:102C2000FFF706FD0798ADF83C700DEB0A020EA900
:102C3000ADF838B0FFF709FD4FF00613C4F8E833DC
:102C40000798C4F8AC8353468D223946CDF800A0CE
:102C5000FFF76AFD0799304606F0C6FD0898ADF803
:102C600038500DEB0A020EA9ADF83C90FFF768FD55
:102C70002A46294604F24440FFF7DAFC0CE000BF84
:102C80007C500208645F02084C500208952400083A
:102C900064500208712500080898ADF83C700DEBEF
:102CA0000A020EA9ADF838B0FFF7CFFC4FF00613BB
:102CB000C4F87C340898C4F8408453464622CDF8C2
:102CC00000A0A921FFF730FD0899304606F08CFDE1
:102CD0000998ADF838500DEB0A020EA9ADF83C90FA
:102CE000FFF72EFD2A46294604F59B60FFF7A0FC5E
:102CF0000998ADF83C700DEB0A020EA9ADF838B09A
:102D0000FFF7A3FC4FF00613C4F810350998C4F878
:102D1000D48453464622CDF800A05C21FFF704FD81
:102D20000999304606F060FD0A98ADF838500DEB71
:102D30000A020EA9ADF83C90FFF702FD2A4629468B
:102D400004F26C50FFF774FC0A98ADF83C700DEB80
:102D50000A020EA9ADF838B0FFF777FC4FF0061362
:102D6000C4F8A4350A98C4F8688553464622394603
:102D7000CDF800A0FFF7D8FC0A99304606F034FDE4
:102D800010230C98ADF838300DEB0A020F230EA972
:102D9000ADF83C30FFF78BFC32230C98C4F8085692
:102DA000C4F8FC854FF487720093BE21FFF7BCFC8A
:102DB0000C99304606F018FD0A230D98ADF838300E
:102DC0000DEB0A0209230EA9ADF83C302D27FFF7C1
:102DD0006EFC4FF6FD73C4F86C360D98C4F860862F
:102DE000292340F2131229460097FFF79DFC0D9905
:102DF000304606F0F9FC0B982A463946FFF718FCD6
:102E000007230DEB0A020EA90B98ADF83830082302
:102E1000ADF83C3009F051FF02230B98A4F8CC36F2
:102E2000FFF7C4FC4FF07F43C4F8D0364FF0FF33B8
:102E3000C4F8D43604F2EC6330460B99C4F8BC36BF
:102E400006F0D2FC204611B0BDE8F08F704710B5F7
:102E5000082104461FF05AFB204610BD70477047FA
:102E600000F598730868496803C370477047704756
:102E70004160704770470000064BC0F84C3100239A
:102E8000C0F8503100F5A273C0F84801C0F84031D5
:102E9000704700BFB53200080123037270477047C6
:102EA000704710B4C26841685410034601EB6200D9
:102EB000D20748BF0A599B685DF8044B48BFD358F6
:102EC00018470346406830B19A681AB9D86800F0CC
:102ED000010070470120704710B50C2104461FF017
:102EE00015FB204610BD10B5102104461FF00EFB47
:102EF000204610BD10B54FF4AE7104461FF006FB1E
:102F0000204610BD10B50CF0F7FC0368BDE810407A
:102F1000DB6B184710B50446D0F8400158B1036880
:102F2000DB68984738B1D4F8400103689B6898473C
:102F30000023C4F8403110BD044B1B6893F858209F
:102F40000AB1D86C00B99868704700BF082E0120FC
:102F5000F8B5174604460E460CF090FD124B1C6067
:102F6000124B2360124B0025C4E95135114BC4E9C3
:102F700053551868036801219B68C4E94F55C4E99B
:102F800055769847284601F089F9FFF7D5FF17F0E5
:102F9000BAF9FFF7D1FF17F031FAFFF7CDFF17F0BD
:102FA00039FA2046F8BD00BF5C2E0120AC5502085E
:102FB00094550208082E0120064BC0F84C3100231E
:102FC000C0F8503100F5A273C0F84801C0F8403194
:102FD000704700BFB5320008064BC0F84C310023E3
:102FE000C0F8503100F5A273C0F84801C0F8403174
:102FF000704700BF6D310008064BC0F84C3100230C
:10300000C0F8503100F5A273C0F84801C0F8403153
:10301000704700BF2130000803685B6A1847000052
:103020002DE9F14FD0E9556A0746B06803681B6A7D
:10303000984740F2FB63984205D8444B444AA32189
:10304000444820F0A9F9706803681B6A98470F2864
:1030500003D8414B3E4AA421F2E7F06803681B6A9B
:1030600098470B2803D83D4B394AA521E8E70CF0D7
:1030700043FCDFF8F09004300CF063FCD9F800005A
:1030800010B10368DB689847D9F8000010B10368F5
:103090001B689847DFF8D080D8F8000010B10368AB
:1030A0005B699847D7F83C0110B103685B689847A3
:1030B000D8F8000010B103681B689847D7F83C01A6
:1030C00010B103689B689847F0680021FFF7A4FFE0
:1030D0004FF0000B224BC0F804B0044680F808B053
:1030E0000360B068036859465B6A9847054601F07B
:1030F000D9F97068036859465B6A984729460646BD
:1031000001F040F9331DC7F83C61C9F80040C8F828
:103110000050CAF800302B68C6F808A02846DB68C3
:10312000EE639847336830461B6898472146284627
:103130000EF092FD236820461B69984723685B695F
:10314000204601B0BDE8F04F184700BFE450020828
:10315000725102084E520208955202083853020872
:1031600000560208502E01204C2E01202DE9F14F6F
:10317000D0E9556A0746B06803681B6A9847B0F5FE
:10318000FB6F05D2434B444AA321444820F004F985
:10319000706803681B6A98470F2803D8404B3E4A63
:1031A000A421F2E7F06803681B6A98470B2803D84C
:1031B0003C4B394AA521E8E70CF09EFBDFF8EC9088
:1031C00004300CF0BEFBD9F8000010B10368DB68D6
:1031D0009847D9F8000010B103681B689847DFF8DA
:1031E000D080D8F8000010B103685B699847D7F821
:1031F0003C0110B103685B689847D8F8000010B133
:1032000003681B689847D7F83C0110B103689B68B6
:103210009847F0680021FFF7FFFE4FF0000B224BAC
:10322000C0F804B0044680F808B00360B0680368D2
:1032300059465B6A9847054601F066FA706803686C
:1032400059465B6A98472946064601F09FF9331DA7
:10325000C7F83C61C9F80040C8F80050CAF800300F
:103260002B68C6F808A02846DB68EE6398473368E9
:1032700030461B689847214628460EF0EDFC23682F
:1032800020461B69984723685B69204601B0BDE86A
:10329000F04F1847E4500208DB5302084E52020870
:1032A000955202083853020800560208502E012099
:1032B0004C2E01202DE9F14FD0E9556A0746B06840
:1032C00003681B6A9847B0F59C7F05D2434B444A7C
:1032D000A321444820F060F8706803681B6A98478F
:1032E0000F2803D8404B3E4AA421F2E7F068036858
:1032F0001B6A98470B2803D83C4B394AA521E8E7BD
:103300000CF0FAFADFF8EC9004300CF01AFBD9F864
:10331000000010B10368DB689847D9F8000010B1CD
:1033200003681B689847DFF8D080D8F8000010B118
:1033300003685B699847D7F83C0110B103685B6884
:103340009847D8F8000010B103681B689847D7F871
:103350003C0110B103689B689847F0680021FFF7B3
:103360005BFE4FF0000B224BC0F804B0044680F81F
:1033700008B00360B068036859465B6A9847054621
:1033800001F0EAF87068036859465B6A9847294675
:10339000064601F0BFF8331DC7F83C61C9F800408C
:1033A000C8F80050CAF800302B68C6F808A02846B4
:1033B000DB68EE639847336830461B6898472146C0
:1033C00028460EF049FC236820461B69984723686D
:1033D0005B69204601B0BDE8F04F1847E450020891
:1033E000B35402084E52020895520208385302089C
:1033F00000560208502E01204C2E0120406A7047D2
:10340000806A704770478A880B8810B5D20A4C884A
:10341000C1699BB251F8220043EA0443184410BD2D
:1034200010B50446BAB1107B68B1537BD27A1B0247
:1034300003F4E0631A43236A03EB82031A888A4287
:1034400002D193F9020010BD05D8013880B20433CF
:103450000028F3D1F7E70020F5E710B52C2104464A
:103460001FF054F8204610BD30B58BB00446BDF8AF
:1034700060500895BDF85C5007959DF85050069532
:103480009DF84C5005959DF8485004959DF8445082
:1034900003959DF8405002959DF83C500195BDF86C
:1034A000385000950EF032F8064B2360159BE3610F
:1034B000169B2362199B63621A9BA36220460BB082
:1034C00030BD00BF2456020870477047704730B4C3
:1034D000C26844685510034604EB6200D20748BF37
:1034E00062599B6830BC48BFD358184703464068B0
:1034F00030B19A681AB9D86800F00100704701200D
:10350000704710B5102104461FF000F8204610BD8A
:1035100010B54FF49C7104461EF0F8FF204610BD14
:10352000E030884208B505D10CF0E6F9BDE8084066
:10353000FFF752BD08BD00000022C0E90122C0E92A
:103540000322C0E90522C0E907224FF48072828479
:10355000014A0260704700BF8C5602082DE9F04F07
:10356000044689B0264600250EF0CAF9644BE5638F
:1035700046F8403B4FF0260B5A462946304620F08D
:1035800012F93046FFF7D8FF04F16C085D4B236455
:10359000FF275A46294684F866704FF6FF79A566DC
:1035A0004046ADF8189020F0FEF84046FFF7C4FF03
:1035B000554BE366BDF81830A4F8923084F8947047
:1035C00006A904F19807404609F0A9FC5A46294685
:1035D000384620F0E8F83846FFF7AEFF4B4BC4F80A
:1035E00098304B4BC4F8C0304FF47F03A4F8C4901C
:1035F000C4F8CC3004F1E0094FF0FF33C4E93635AC
:10360000C4F8C850A4F8D050C4F8D450484609F0C3
:10361000C7FD404AC4E94A243F4A2946C4E94C252B
:1036200030462A46FFF704F83046F021FDF760FEE9
:1036300030464FF4A071FDF75DFE04F1040A4FF02F
:103640007F42A2663146504606F0CEF86FF03E0249
:1036500040466FF00F01FEF7EBFF052606A9404636
:10366000ADF8186009F05BFC4146504606F0BCF826
:10367000594638461422FEF7DBFFE8464FF07F42FA
:10368000C4F8C82039464046A4F8CC5009F01EF8CA
:1036900098E8070004F1D40C8CE807001C4B069353
:1036A000062206A93846ADF81C2009F0A9FA3946C9
:1036B000504606F099F829464846BF22FEF7B8FF63
:1036C0000222ADF81420032205A9ADF818204846BF
:1036D00006AA09F0F2FA4846A4F81861FFF766F85E
:1036E0004FF0FF33C4E9473304F594735046C4F8F0
:1036F0000831494606F078F8204609B0BDE8F08F59
:103700000C570208645F0208CC5F0208D45E02080E
:10371000DC500208F45602082135000830B5036871
:10372000018185B06D460146D3F8843004462846B1
:10373000984795E807003C3484E8070005B030BDA1
:1037400030B50368418185B06D460146D3F88430B9
:1037500004462846984795E807003C3484E807006B
:1037600005B030BD0022028042808280C280704756
:1037700080F83610704770B5036804461B6B154619
:1037800098472368294620465B6EBDE8704018477D
:103790000020704700224FF0FF31C0E90021826015
:1037A0007047806C7047704770477047704770472C
:1037B0007047704770477047704770477047704751
:1037C000704770477047704730B4C26844685510FE
:1037D000034604EB6200D20748BF62599B6830BCC5
:1037E00048BFD35818470346406830B19A681AB9A1
:1037F000D86800F0010070470120704730B4C268FB
:1038000044685510034604EB6200D20748BF625972
:103810009B6830BC48BFD35818470346406830B156
:103820009A681AB9D86800F0010070470120704703
:1038300010B54C2104461EF069FE204610BD10B59F
:10384000102104461EF062FE204610BD10B5102166
:1038500004461EF05BFE204610BD10B54FF4FB6120
:1038600004461EF053FE204610BD00F19803994215
:1038700070B504460D4603D10CF03EF8FFF79CFBF3
:1038800004F29C539D4203D1236820461B6B98474A
:1038900004F5A1639D4203D1236820465B6B9847E2
:1038A00004F274439D4203D123682046DB6B9847A2
:1038B00004F578739D4203D1236820461B6C98471A
:1038C00004F553739D4203D1236820465B6C9847EF
:1038D00004F52E739D4203D1236820469B6C9847C4
:1038E00004F509739D4203D123682046DB6C984799
:1038F00004F5C8739D4203D1236820461B6D984789
:1039000004F1FC039D4203D1236820465B6D984778
:1039100004F5D8639D4205D1236820469B6DBDE820
:103920007040184770BD08B5FDF798FD08BD000050
:10393000036870B55E6B124B1B6804468DB22BB9E1
:10394000104B114A6C2111481FF026FD1049828D41
:103950000988914203D80F4B0B4A6D21F3E713F806
:1039600012200D4B1B6853F8220003681B6B98470D
:10397000291A3346204609B2BDE87040184700BFF7
:10398000602E01209C4D0208DE4D0208194E0208EF
:10399000642E012038570208682E012000F5C66306
:1039A000994270B504460D4603D10BF0A5FFFFF711
:1039B00023FB04F5CF639D4205D1236820469B6B12
:1039C000BDE87040184770BD10B52622044600219E
:1039D0001FF0E9FE2046FFF7AFFD0A4B23600A4BBC
:1039E000A3624FF6FF73A3854FF47F020023C4E95F
:1039F0000C3223874FF0FF32C4E91023E3632046E3
:103A000010BD00BFD45E0208DC5002082DE9F04F63
:103A1000044699B0274600250DF072FFD94BE563A7
:103A200047F8403B2622294638461FF0BCFE384660
:103A3000FFF782FDD44B236404F16C08FF2316A921
:103A400004F1980984F86630A5664FF6FF73404686
:103A5000ADF85830FEF790FE4846FEF729FF04F116
:103A6000FC0318460293FEF7E3FE04F5C8731846FC
:103A70000393FEF7DDFE04F5097318460493FEF781
:103A8000D7FE04F52E7318460593FEF7D1FE04F514
:103A9000537318460693FEF7CBFE04F57873184669
:103AA0000793FEF7C5FE04F2744318460893FEF729
:103AB000BFFE04F5A16318460993FEF7B9FE04F2B0
:103AC0009C5318460A93FEF7B3FE04F5C6631846E6
:103AD0000B9309F065FB04F5CF6318460C9309F0CE
:103AE0005FFB04F5D86318460E93FEF7E1FE04F27F
:103AF000247318460F93FFF767FFA44BC4F82437CD
:103B000004F5EE63C4F86C5718460D93FFF75CFF9D
:103B10009F4BC4F8B8379F4BC4F8C0379E4BC4F8CE
:103B2000C8379E4BC4F8D0374FF4A0732A46C4F868
:103B3000BC47C4F8C457C4F8CC47C4F8D457294686
:103B400000933846F023261DFEF7EEFD4FF07F432D
:103B5000A3663946304605F047FE6FF04602404600
:103B60006FF01901FEF764FD4FF0040316A94046FB
:103B7000ADF8583009F0D3F94146304605F034FE2F
:103B80000D23ADF8543016AA0C2315A9484604F5A8
:103B9000F768ADF85830FEF78AFD3223C4F8C880C4
:103BA000C4F8D4504FF4877200934846BE21FEF704
:103BB000BBFD494630464FF0010B05F015FE02985B
:103BC000ADF8545016AA15A9ADF858B0FEF7B8FDD7
:103BD0002A46294604F598700B274FF00E0AFEF787
:103BE00027FD0298ADF854A016AA15A94FF03C097C
:103BF000ADF85870FEF729FD4FF006124B46C4F899
:103C00006821C4F82C810298CDF80090D222A92115
:103C1000FEF78AFD0299304605F0E6FD0398ADF8FF
:103C2000545016AA15A9ADF858B0FEF789FD2A46DA
:103C3000294604F5E270FEF7FBFC0398ADF854A0AA
:103C400016AA15A9ADF85870FEF7FFFC4FF0061242
:103C50004B46C4F8FC21C4F8C0810398CDF800900D
:103C6000D2225C21FEF760FD0399304605F0BCFDD1
:103C70000498ADF8545016AA15A9ADF858B0FEF73F
:103C80005FFD2A46294604F51670FEF7D1FC04981C
:103C9000ADF854A016AA15A9ADF85870FEF7D5FCDA
:103CA0004FF006124B46C4F89022C4F85482049890
:103CB000CDF80090D2223946FEF736FD0499304601
:103CC00005F092FD0598ADF8545016AA15A9ADF867
:103CD00058B0FEF735FD2A46294604F53B70FEF73D
:103CE000A7FC0598ADF854A016AA15A9ADF8587010
:103CF000FEF7ABFC4FF006124B46C4F82423C4F881
:103D0000E8820598CDF800908D22A921FEF70CFDE0
:103D10000599304605F068FD0698ADF8545016AA8E
:103D200015A9ADF858B0FEF70BFD2A46294604F553
:103D30006070FEF77DFC0698ADF854A016AA15A990
:103D4000ADF85870FEF781FC4FF006124B46C4F8F0
:103D5000B823C4F87C830698CDF800908D225C21AE
:103D6000FEF7E2FC0699304605F03EFD0798ADF8F7
:103D7000545016AA15A9ADF858B0FEF7E1FC2A4632
:103D80000EE000BF40580208645F02088057020836
:103D9000105802086B380008285802089D3900089E
:103DA000294604F21440FEF743FC0798ADF854A0EE
:103DB00016AA15A9ADF85870FEF747FC4FF0061289
:103DC0004B46C4F84C24C4F810840798CDF80090F2
:103DD0008D223946FEF7A8FC0799304605F004FD10
:103DE0000898ADF8545016AA15A9ADF858B0FEF7CA
:103DF000A7FC2A46294604F59560FEF719FC0898A9
:103E0000ADF854A016AA15A9ADF85870FEF71DFC20
:103E10004FF006124B46C4F8E024C4F8A484089876
:103E2000CDF800904622A921FEF77EFC0899304685
:103E300005F0DAFC0998ADF8545016AA15A9ADF8AA
:103E400058B0FEF77DFC2A46294604F23C50FEF7A6
:103E5000EFFB0998ADF854A016AA15A9ADF8587053
:103E6000FEF7F3FB4FF006124B46C4F87425C4F876
:103E700038850998CDF8009046225C21FEF754FC65
:103E80000999304605F0B0FC0A98ADF8545016AACE
:103E900015A9ADF858B0FEF753FC2A46294604F59B
:103EA000BA60FEF7C5FB0A98ADF854A016AA15A98A
:103EB000ADF85870FEF7C9FB4FF006124B46C4F838
:103EC0000826C4F8CC850A98CDF8009046223946D9
:103ED000FEF72AFC0A99304605F086FC0B986FF035
:103EE00009026FF01901FEF7A3FB4FF0080A16AAAA
:103EF00015A90B98ADF858A00623ADF8543008F07A
:103F0000DCFE4FF004030B98A4F86836FEF74EFC75
:103F10004FF0FF3904F5F963C4F858360B99C4F82B
:103F20006C963046C4F87096029305F05DFC0C98D0
:103F30006FF009027321FEF77BFB16AA15A90C98F6
:103F4000ADF858A00623ADF8543008F0B6FE0323B0
:103F50000C98A4F8B036FEF729FC029B0C99C4F823
:103F6000A0363046C4F8B496C4F8B89605F03CFCC8
:103F70000A230E98ADF8543016AA092315A9ADF8F6
:103F80005830FEF794FB4FF6FD73C4F8FC362D2332
:103F9000C4F8F0860E98009340F2131229232946A4
:103FA000FEF7C2FB0E99DFF89880304605F01CFC46
:103FB000A0220F983946FEF73BFB4FF07F43C4F831
:103FC00054370F98A4F8585716A9C4F86057C4F886
:103FD0006497C4F86857CDF85880ADF85CB008F025
:103FE0000FFE0F9984F84957304605F0FDFB0D98F8
:103FF000A0221321FEF71CFB10AF4FF07F430D9959
:10400000C4F8A0373846A4F8A45708F05FFB97E837
:10401000070004F2AC7383E807000D98CDF85880D0
:1040200016A9ADF85C5008F0EBFD30460D9984F808
:10403000955705F0D9FB204619B0BDE8F08F00BFB9
:10404000DC5002087047000030B5164D2C68BFF3F5
:104050005B8F14F001048FB020D128461EF058FA6F
:10406000E0B13F230993104B0893104B10491148BE
:104070000A940122CDE906430423CDE903320A2341
:104080000093CDE90B44CDE901440594FFF7ECF929
:1040900009481FF09FF928461EF046FA05480FB060
:1040A00030BD00BF101F0020D8750208147602082A
:1040B00004740208141F00204540000870470000E7
:1040C00030B5174D2C68BFF35B8F14F001048FB02F
:1040D00022D128461EF01CFAF0B13F230993114B60
:1040E0000893114B07930123CDE90543049304235F
:1040F000CDE9024314230D4900931F221823CDE973
:104100000B440B480A940194FFF7AEF909481FF0DD
:1041100061F928461EF008FA05480FB030BD00BF0F
:10412000401F0020DC75020818760208147402088B
:10413000441F0020BD4000087047000030B5164DF8
:104140002C68BFF35B8F14F001048FB020D1284698
:104150001EF0DEF9E0B13F230993104B0893104B9A
:10416000104911480A940122CDE906430423CDE900
:10417000033228230093CDE90B44CDE90144059493
:10418000FFF772F909481FF025F928461EF0CCF90F
:1041900005480FB030BD00BF701F00201076020828
:1041A00028760208C8750208741F002039410008EB
:1041B00000207047002070470EB403B503AB002108
:1041C00053F8042B01930CF01FFC02B05DF804EBD4
:1041D00003B070470CB407B504AB53F8042B01933C
:1041E0000CF012FC03B05DF804EB02B07047000065
:1041F000436C10B5044673B3038F2BB9184B194A9F
:10420000C52119481FF0C8F8C38E00EB43035B8C2F
:104210000BB30EF07AFA238F012B03D8134B144AF9
:10422000CB21EEE7E28E531C9BB2092B194688BFC7
:10423000A3F10A0104EB410140F63F10498C814291
:1042400009D10A2B04EB420228BF002304EB4303ED
:10425000508C588451842046BDE810400EF058B967
:104260009C580208A5580208505902089A59020899
:10427000A85902080EF013B910B586B002AC84E854
:1042800006001A460AAB05930193099B0093214649
:10429000089B0AF0CFFE06B010BD000038B518BB71
:1042A000124B13481C681349B4B1226822440260BF
:1042B000626822440A60A26814440F4B00221A80EC
:1042C00000F038F8054600F033F80C4B1C600C4B3E
:1042D0001D600C4B188007E00B4B03600B4B0B6011
:1042E0000B4B1C68002CE8D138BD00BFAC1F002070
:1042F000A41F0020A01F0020A81F0020602E012066
:10430000682E0120642E0120487602082C760208CF
:10431000EC760208044B1B6853F82100034B1B6822
:1043200003EB4000704700BFA01F0020A41F002027
:104330000720704700487047B01F002010B5FFF7F6
:10434000BFFE044C2060FFF7F9FE6060FFF77CFEC3
:10435000A06010BDB01F002010B5002404600C60E8
:1043600014601C6010BD704704387047704710B56A
:10437000102104461EF0CAF8204610BDA0F104002A
:10438000F5E7000000228260024A026018324260B3
:10439000C1607047845A020870470000044A1368DD
:1043A000082BDFBF581C1060024A42F823107047E8
:1043B000BC1F0020C01F0020036801219B6D18470F
:1043C000036802219B6D1847036803219B6D184702
:1043D000036804219B6D1847036805219B6D1847EE
:1043E000036806219B6D1847036807219B6D1847DA
:1043F000036808219B6D1847036809219B6D1847C6
:10440000034B04480021242219601FF0CCB900BFDF
:10441000BC1F0020C01F002010B50368084CDB6DD6
:104420009847204600224FF4005101F07BF82046C7
:104430000022BDE810404FF4804101F073B800BF86
:104440000018024010B5044605F06AF9074B084908
:104450001A7805F081F923682046DB6D9847BDE89E
:10446000104004484FF4804101F061B8BC1F0020A7
:10447000C01F00200018024010B5034B0360044623
:10448000FDF76CFF204610BDAC5A020810B504467B
:10449000FFF7F2FF204640F2FC611EF037F820469D
:1044A00010BD000010B50446FEF726FA014B23604C
:1044B000204610BDAC5A0208FDF751BF704710B539
:1044C0004FF4AE7104461EF021F8204610BD10B521
:1044D0000446D0F8580100F0C2F92046BDE810406B
:1044E0000BF08CBA10B50446FEF732FD014B236089
:1044F000204610BD145B02087047043870477047AF
:1045000010B5102104461EF001F8204610BDA0F1A0
:104510000400F5E700228260024A0260183242601D
:10452000C1607047685B02087047000010B5034B1C
:1045300003600446FEF7C8FF204610BD905B0208EA
:1045400010B50446FFF7F2FF20464FF49C711DF0B2
:10455000DDFF204610BD000010B50446FEF7FEFF4B
:10456000014B2360204610BD905B0208FEF7ADBFF3
:10457000704704387047704710B5102104461DF08D
:10458000C5FF204610BDA0F10400F5E700228260BF
:10459000024A026018324260C1607047C45B020880
:1045A00070470000044A1368082BDFBF581C1060D6
:1045B000024A42F8231070472C20002030200020AF
:1045C00003680121DB6D184703680221DB6D184782
:1045D00003680321DB6D184703680421DB6D18476E
:1045E00003680521DB6D184703680621DB6D18475A
:1045F00003680721DB6D184703680821DB6D184746
:1046000003680921DB6D1847034B0448002124226D
:1046100019601FF0C8B800BF2C20002030200020F7
:1046200070B50A4D0446012228464FF4005100F0AF
:1046300079FF284600224FF4804100F073FF236881
:1046400020461B6EBDE87040184700BF00180240AE
:1046500010B50368084C1B6E9847204600224FF4A3
:10466000005100F05FFF20460022BDE810404FF4EB
:10467000804100F057BF00BF001802402DE9F04113
:10468000044605F04DF8064605F062F8054630464A
:1046900005F05FF80F4B19682368884204D09B6EC1
:1046A0002046BDE8F04118470028F8D00A4800220B
:1046B000914205D15B6E2046984723681B6EEFE759
:1046C00050F8047B55F82260B74201D10132EFE780
:1046D0009B6EF0E72C2000203020002010B5034B0B
:1046E00003600446FFF76BF8204610BD105C02081B
:1046F00010B50446FFF7F2FF20464FF4FB611DF0B2
:1047000005FF204610BD000010B50446FFF77EF9F6
:10471000034B23602046FFF753F8204610BD00BF2F
:10472000105C020808B5FFF74BF8044B05221A701D
:10473000034A00231370034A136008BD2A20002097
:10474000EC1F0020E41F0020134A1368013370B5EA
:104750001360124A11780446E1B1114909688B428D
:1047600018D3002515700F4E0F4A052313701E2114
:104770000E4A30460EF072FD04F22470C4F86C67E5
:104780000CF06CFA84F8955704F5EE60BDE87040C3
:104790000CF064BA70BD00BFE41F0020EC1F0020C5
:1047A000E81F0020EE1F00202A200020E45B020802
:1047B00038B5012204464FF480411F4800F0B2FE94
:1047C00000221D484FF4005100F0ACFE2368204643
:1047D0001B6E9847194A1378F3B9194D2B7843B9D2
:1047E000012384F8953704F5EE60BDE838400CF0FD
:1047F00035BA013BDBB22B707BB1124A12481E2145
:104800000EF02CFD104BC4F86C3704F224700CF041
:1048100025FA2B78002BE3D038BD012313700B4B06
:104820000B4A1B680B49084803F5E16313603C22FF
:104830000EF0B3F9E6E700BF00180240EC1F0020BD
:104840002A200020E45B0208EE1F0020E41F002065
:10485000E81F0020F85B02080022026070477047E2
:10486000F02070474FF4A07070472920FDF7D0B9B1
:104870002820FDF7CDB908B5FDF79EF9CA20FDF750
:10488000C7F9C320FDF7A8F90820FDF7A5F95020C6
:10489000FDF7A2F9CF20FDF7BBF90020FDF79CF949
:1048A000C120FDF799F93020FDF796F9ED20FDF7CD
:1048B000AFF96420FDF790F90320FDF78DF9122080
:1048C000FDF78AF98120FDF787F9E820FDF7A0F9C7
:1048D0008520FDF781F90020FDF77EF97820FDF7AE
:1048E0007BF9CB20FDF794F93920FDF775F92C20E1
:1048F000FDF772F90020FDF76FF93420FDF76CF930
:104900000220FDF769F9F720FDF782F92020FDF775
:1049100063F9EA20FDF77CF90020FDF75DF900203E
:10492000FDF75AF9B120FDF773F90020FDF754F9AE
:104930001B20FDF751F9B620FDF76AF90A20FDF7B3
:104940004BF9A220FDF748F9C020FDF761F91020CE
:10495000FDF742F9C120FDF75BF91020FDF73CF9A6
:10496000C520FDF755F94520FDF736F91520FDF76F
:1049700033F9C720FDF74CF99020FDF72DF93620CB
:10498000FDF746F9C820FDF727F9F220FDF740F9B9
:104990000020FDF721F9B020FDF73AF9C220FDF71C
:1049A0001BF9B620FDF734F90A20FDF715F9A72009
:1049B000FDF712F92720FDF70FF90420FDF70CF998
:1049C0002A20FDF725F90020FDF706F90020FDF764
:1049D00003F90020FDF700F9EF20FDF7FDF82B208B
:1049E000FDF716F90020FDF7F7F80020FDF7F4F8C1
:1049F0000120FDF7F1F83F20FDF7EEF8F620FDF776
:104A000007F90120FDF7E8F80020FDF7E5F806209A
:104A1000FDF7E2F82C20FDF7FBF8C820FDF746F97A
:104A20002620FDF7F5F80120FDF7D6F8E020FDF788
:104A3000EFF80F20FDF7D0F82920FDF7CDF824205E
:104A4000FDF7CAF80C20FDF7C7F80E20FDF7C4F8F3
:104A50000920FDF7C1F84E20FDF7BEF87820FDF7DC
:104A6000BBF83C20FDF7B8F80920FDF7B5F8132096
:104A7000FDF7B2F80520FDF7AFF81720FDF7ACF809
:104A80001120FDF7A9F80020FDF7A6F8E120FDF7B9
:104A9000BFF80020FDF7A0F81620FDF79DF81B20B9
:104AA000FDF79AF80420FDF797F81120FDF794F828
:104AB0000720FDF791F83120FDF78EF83320FDF740
:104AC0008BF84220FDF788F80520FDF785F80C20CB
:104AD000FDF782F80A20FDF77FF82820FDF77CF823
:104AE0002F20FDF779F80F20FDF776F81120FDF75C
:104AF0008FF8C820FDF7DAF82920FDF789F8BDE81E
:104B000008402C20FDF784B808B5FDF755F80321BF
:104B1000D320FDF799F880B208BD10B5C4B20222C7
:104B200003212046FCF7FEFF0A20FDF743F820464C
:104B300000220321FCF7F6FFBDE810400220FDF73C
:104B400039B838B50446E4B2FCF7EAFF0021204644
:104B5000FDF700F8012105462046FCF7FBFF40EA7F
:104B6000052080B238BD10B5C4B240212046FCF704
:104B7000F1FF030607D54C212046FCF7EBFF003878
:104B800018BF012010BD01224B212046FCF7CAFFAF
:104B9000204600224B21FCF7C5FF0020F2E773B549
:104BA0000423C4B20E461546D7210DEB030220465E
:104BB000FCF7EAFF019B1BBA1A0DC3F30B233280EB
:104BC00020462B8001224B21FCF7ACFF00224B2119
:104BD0002046FCF7A7FF02B070BD000010B50A4ADE
:104BE0001378984204460DD0517888420AD00BB110
:104BF00041B90123D454FCF793FF2046BDE810408F
:104C0000FFF78BBF10BD00BF5420002010B5C4B209
:104C100009212046FCF79EFF40F00102D2B2204657
:104C20000921BDE81040FCF77DBF10B5C4B20921D1
:104C30002046FCF78FFF092100F0FE022046BDE868
:104C40001040FCF76FBF38B5C4B20D4620460A21AC
:104C5000FCF780FF40EA0502D2B220460A21BDE8F7
:104C60003840FCF75FBF10B50446FCF75AFF2046FA
:104C70001F21FFF7E8FF2046BDE81040FFF7C6BF41
:104C800038B5C4B20D4620460A21FCF763FF20EA7E
:104C90000502D2B220460A21BDE83840FCF742BFE7
:104CA00010B50446FFF7C1FF20461F21BDE81040A4
:104CB000FFF7E6BF10B5C0B20C460B21FCF74AFF68
:104CC000204010BD1F21FFF7F5BF0A46C0B20B21DF
:104CD000FCF728BF1F21FFF7F8BF38B5C4B20D4657
:104CE00020461721FCF736FF20EA0502D2B2204603
:104CF0001721BDE83840FCF715BF70B5C4B20646B1
:104D000004212046FCF726FF042100F0FB020546A3
:104D10002046FCF707FF3046F021FFF7DEFF05F0E5
:104D2000F80220460421FCF7FDFE492220212046FE
:104D3000FCF7F8FE0220FCF73DFF2046012221216E
:104D4000FCF7F0FE20469A224121FCF7EBFE2046BC
:104D500001224A21FCF7E6FE204601224B21FCF706
:104D6000E1FE204600224B21FCF7DCFE204601221A
:104D70005621FCF7D7FE204601225821FCF7D2FE2F
:104D8000204601224021FCF7CDFE2046FF220B21C8
:104D9000FCF7C8FEBDE870400220FCF70BBF000026
:104DA000054BD3F8882042F47002C3F888204FF0F6
:104DB00000629A60704700BF00ED00E008B50B4B41
:104DC0001A6842F400721A601A6842F480621A602B
:104DD0001A6842F480721A60032000F02FF8002055
:104DE000FDF7A6F9FCF770FF002008BD003C02406B
:104DF000034A044B11681B780B441360704700BFD3
:104E00005820002078000020014B1868704700BF30
:104E10005820002038B50446FFF7F6FF631C1CBF7E
:104E2000054B1B78054618BFE418FFF7EDFF431B41
:104E3000A342FAD338BD00BF780000200749CA68F2
:104E400022F4E0620302120403F4E063120C134341
:104E500043F0BF6343F40033CB60704700ED00E0E4
:104E6000164B30B5DC68C4F30224C4F10703251DDA
:104E7000042B28BF0423062D4FF0FF358CBF033CC5
:104E8000002405FA03F321EA0303A54022EA050200
:104E9000A340002843EA0203ACBF00F16040084A87
:104EA0004FEA0313B8BF00F00F00DBB2AABF00F552
:104EB0006140135480F8003330BD00BF00ED00E0C6
:104EC00014ED00E0002807DB044A4109012300F04B
:104ED0001F00834042F82130704700BF00E100E02E
:104EE00010B5044650B1437903F0FF0213B90271C3
:104EF000FCF70AFF01236371002010BD0120FCE7CD
:104F000010B5044630B390F8393003F0FF021BB9F6
:104F100080F83820FCF710FF22686168022384F8CB
:104F20003930136823F440330B431360536BA1688B
:104F300023F007030B435363136CE16823F47F539F
:104F400023F03F030B43136400200123E06384F844
:104F5000393010BD0120FCE770477047036870B519
:104F60005E681D68F207044614D5E90512D51A6873
:104F700022F480721A60C26B42F00102C263012205
:104F80009A60042380F83930002380F83830436970
:104F900003B19847B20616D5AB0414D523681A6836
:104FA00022F400521A6020229A60E36B43F002035D
:104FB000E363042384F83930002384F838306369CC
:104FC0000BB120469847300716D5290514D523681C
:104FD0001A6822F400621A6008229A60E36B43F0B8
:104FE0000403E363042384F83930002384F8383061
:104FF00063690BB12046984772070BD56B0509D53D
:1050000023681A6822F480621A6004229A6020469B
:10501000FFF7A2FFB00714D5A90512D523681A68B7
:1050200022F400721A6002229A60E36BE3630123A8
:1050300084F83930002384F8383023690BB12046D6
:105040009847F20613D5EB0411D523681A6822F4A9
:1050500080521A6010229A60E36BE363012384F8A4
:105060003930002384F838302046FFF776FF70BDD2
:10507000F0B590F83820012A03464FF002002BD0FB
:10508000012283F8382083F8390003EB0112D2E9BA
:105090000740556A174F44EA0040093C012C9CBF69
:1050A00005F07F4210434FEA01161A6888BF40EAB4
:1050B000056091B9516A394001435162012C9969E7
:1050C000916103D8596A21F07F4191620122002049
:1050D00083F8392083F83800F0BDD16939400143A5
:1050E000D1619919012C896911619CBF25F07F4517
:1050F0001562EBE7F0FFFC00094910B50C6924F4D8
:1051000040740C610C6944F440740C610C6944F007
:1051100001040C610260BFF36F8F436010BD00BFDC
:10512000003C0240074B1A6922F440721A611A6966
:1051300042F400721A611A6942F001021A610160B8
:10514000704700BF003C0240074B1A6922F44072CE
:105150001A611A6942F480721A611A6942F00102F6
:105160001A610180704700BF003C0240204BDA68A2
:10517000D00606D51F49CA6942F01002CA61102242
:10518000DA60DA68910606D51A49CA6942F008025F
:10519000CA612022DA60164BDA68520606D5154934
:1051A000CA6942F00402CA614022DA60DA68100675
:1051B00006D51049CA6942F00202CA618022DA604B
:1051C0000B4BDA68D10507D50A49CA6942F00102DA
:1051D000CA614FF48072DA60DA68920706D5054931
:1051E000CA6942F02002CA610222DA60704700BF39
:1051F000003C02405C200020064B1A69002ABFBF19
:10520000054A5A6002F188325A60BABF1869C00F65
:1052100000207047003C024023016745034A1369A0
:1052200043F0004313610020704700BF003C024080
:10523000114B70B500220446DA61FFF7E5FD0F4D12
:105240000646EB68DA030CD4EB68DB0744BF0123A6
:10525000EB60E86810F4F97007D0FFF787FF0120D2
:1052600003E0611CEDD00CB9032070BDFFF7CCFD4D
:10527000801BA042E5D9F7E75C200020003C0240FB
:105280002DE9F0411F4E9846337E012B07460D460F
:10529000144635D001234CF250303376FFF7C8FF67
:1052A000B0B9CFB9184B1A6922F440721A611A6961
:1052B0001A611A69E4B242F001021A612C704CF2D0
:1052C0005030FFF7B5FF104A136923F00103136153
:1052D00000233376BDE8F081012F04D1A1B2284626
:1052E000FFF732FFEBE7022F04D121462846FFF7F4
:1052F00019FFE4E7224643462846FFF7FDFEDEE7B6
:105300000220E7E75C200020003C02400F4B1A69B6
:1053100022F440721A611A69022994BF09024FF4FB
:1053200040710A431A611A6922F0F8021A611A6977
:105330000B2888BF043042EAC00242F002021A6120
:105340001A6942F480321A61704700BF003C024083
:105350002DE9F74FDFF8BC916C4A00230D6801245A
:105360009C4004EA0506AC4340F0B7804D68032733
:1053700005F003044FEA430807FA08FC671E012FF3
:105380006FEA0C0C34D8876807EA0C0ECF6807FA6E
:1053900008F747EA0E078760476827EA060EC5F355
:1053A00000179F4047EA0E074760C76807EA0C0EE0
:1053B0008F6807FA08F747EA0E07022CC76019D171
:1053C0004FEAD30A00EB8A0A03F0070BDAF82070E1
:1053D0004FEA8B0B4FF00F0E0EFA0BFE27EA0E0E64
:1053E0000F6907FA0BF747EA0E07CAF8207001E0C9
:1053F000032CDAD1076804FA08F407EA0C073C43E7
:1054000015F4403F046068D000240194D9F844406A
:1054100044F48044C9F84440D9F8444023F00307D9
:1054200007F1804704F4804407F59C37019403F0AA
:10543000030C019CD7F808E04FEA8C0C0F2404FA07
:105440000CF42EEA040E324CA0424DD004F58064D8
:10545000A0424BD004F58064A04249D004F580649A
:10546000A04247D004F58064A04245D004F5806492
:10547000A04243D004F58064A04241D004F580648A
:10548000A0423FD004F58064A0423DD004F5806482
:10549000A04214BF0A24092404FA0CF444EA0E04BE
:1054A000BC609468F74315F4801F0CBF3C40344344
:1054B0009460D46815F4001F0CBF3C403443D460A2
:1054C000546815F4003F0CBF3C40344354601468EA
:1054D000ED0354BF3C40344314600133102B7FF480
:1054E0003DAF03B0BDE8F08F0024D5E70124D3E73A
:1054F0000224D1E70324CFE70424CDE70524CBE73A
:105500000624C9E70724C7E70824C5E7003C014093
:1055100000000240003802400369194214BF012014
:10552000002070470AB1816170470904FBE74369B5
:1055300001EA030221EA030141EA02418161704765
:1055400001684B6913F480634FF0000210D06FF4D0
:1055500080634B612023026380F83D3080F83E2059
:10556000036C80F83C2043F004030364012070477F
:10557000184670472DE9F84606460F4691461D46E7
:105580004FEA114A3368BAF1010F0CBF5C699C699C
:1055900027EA0404A4B2B4FA84F46409A14501D052
:1055A000002025E06A1CEED0FFF72EFC089BC01AF5
:1055B000A84201D8002DE5D13368BAF1010F0CBF24
:1055C0005B699B6927EA03039BB2B3FA83F35B0928
:1055D0009945D7D100232022336386F83D2086F8F1
:1055E0003E30326C86F83C3042F0200232640120BA
:1055F000BDE8F8862DE9F04104460F461646984668
:105600002568686927EA000080B2C0B16B695A0555
:1056100017D52B6843F400732B606FF480636B61C4
:1056200020220023236384F83D2084F83E30236C3D
:1056300043F004032364002384F83C300120BDE8D8
:10564000F081731CDDD0FFF7DFFBA0EB0800B04258
:1056500001D8002ED4D123685A6927EA020292B2F7
:10566000002ACDD000232022236384F83D2084F833
:105670003E30236C1343DDE770B504460D461646F5
:1056800023685B691B0601D500201EE02046FFF75A
:1056900057FFC8B96A1CF3D0FFF7B6FB801BA842BE
:1056A00001D8002DECD123685B6913F08003E7D1AA
:1056B0002022236384F83D2084F83E30226C84F855
:1056C0003C3042F020022264012070BD2DE9F043FD
:1056D0001546026885B0DDE90C789946136843F4F5
:1056E000807313600E463B46CDF8008000224FF0D9
:1056F00001110446FFF73EFF236838B11B68DB0544
:1057000002D54FF400732364032620E006F0FE0662
:105710001E611A4943463A462046FFF76BFFA8B977
:10572000236803905A6903929B6903934246394662
:105730002046039BFFF7A0FF064660B1236C042BB5
:1057400001BF2268136843F40073136001263046DA
:1057500005B0BDE8F083B9F1010F236802D1EDB2C5
:105760001D61F4E72A0A1A61394642462046FFF7CE
:1057700083FF0028E2D12368F1E700BF02000100A7
:105780002DE9FF479A46036815461A6842F480627D
:105790001A601A68DDE90C7842F480721A600E46CD
:1057A0003B46CDF8008000224FF001110446FFF780
:1057B000E1FE236838B11B68DB0544BF4FF400737A
:1057C0002364032021E05FFA86F906F0FE061E61DD
:1057D0002B4943463A462046FFF70CFFA0B9236801
:1057E00003905A6903929B690393424639462046C7
:1057F000039BFFF741FF58B1236C042B01BF2268C4
:10580000136843F400731360012004B0BDE8F0870F
:10581000BAF1010F23681AD1EDB242461D61394633
:105820002046FFF729FF02460028E5D121680B68D2
:1058300043F480730B602046CDF800803B464FF068
:105840000111FFF797FE226860B11368B4E72A0AD6
:105850001A61394642462046FFF70EFF0028CBD199
:105860002368D9E749F001031361054943463A46E5
:105870002046FFF7BFFE003818BF0120C5E700BF74
:105880000200010070B504460D46164623685B69A8
:105890005B0701D500201EE02046FFF751FEC8B986
:1058A0006A1CF3D0FFF7B0FA801BA84201D8002D84
:1058B000ECD123685B6913F00403E7D12022236352
:1058C00084F83D2084F83E30226C84F83C3042F06D
:1058D00020022264012070BD70B504460D461646B4
:1058E00021684B6913F0400301D0002011E04A69A0
:1058F000D2060FD56FF010024A612022236384F88C
:105900003D2084F83E30236C2364002384F83C302F
:10591000012070BDFFF778FA801BA84201D8002D46
:10592000DED123685B6913F04003D9D120222363C1
:1059300084F83D2084F83E30236C1343E4E70000F4
:1059400070B5044608B9012070BD90F83D3003F0F1
:10595000FF021BB980F83C20FCF710FA242384F8DE
:105960003D3023681A6822F001021A601A6842F476
:1059700000421A601A6822F400421A6000F0B2FE77
:105980003F4B65689D4294BF3E4B3F4B98428CBF56
:1059900000230123002BD6D12268394E51683B4B9E
:1059A000B0FBF3F321F03F011943B542516088BFCA
:1059B0004FF49676116A88BF734321F03F0184BF8C
:1059C0004FF47A76B3FBF6F301330B431362D169DC
:1059D000431E2B4821F44F41854221F0FF0132D86C
:1059E0006D0040F6FC70B3FBF5F30133034242D087
:1059F000C3F30B031943D161D4E9073011680343A2
:105A000021F0C0010B4313609168D4E9030321F432
:105A10000341034321F0FF010B439360D4E90530B8
:105A2000D168034321F0FF010B43D360136843F0B7
:105A30000103136000202023206484F83D3020639C
:105A400084F83E0080E7A06850B905EB4505B3FB3C
:105A5000F5F30133C3F30B037BB143F40043C9E710
:105A600019206843B3FBF0F30133C3F30B0323B1F5
:105A700043F44043BEE70423BCE70123BAE700BF79
:105A8000A08601007F841E00FF083D0040420F00F9
:105A90002DE9F743044699460C9E0F469046FFF7C2
:105AA000B3F994F83D30202B054603D0022003B013
:105AB000BDE8F08300903C49192301222046FFF7FE
:105AC00059FD0028F2D194F83C30012BEED020682B
:105AD000012384F83C300368D9075EBF036843F0B4
